{
  "_format": "hh-sol-artifact-1",
  "contractName": "MyNFT",
  "sourceName": "contracts/MyNFT.sol",
  "abi": [
    {
      "inputs": [
        {
          "internalType": "string",
          "name": "_name",
          "type": "string"
        },
        {
          "internalType": "string",
          "name": "_symbol",
          "type": "string"
        }
      ],
      "stateMutability": "nonpayable",
      "type": "constructor"
    },
    {
      "anonymous": false,
      "inputs": [
        {
          "indexed": true,
          "internalType": "address",
          "name": "owner",
          "type": "address"
        },
        {
          "indexed": true,
          "internalType": "address",
          "name": "approved",
          "type": "address"
        },
        {
          "indexed": true,
          "internalType": "uint256",
          "name": "tokenId",
          "type": "uint256"
        }
      ],
      "name": "Approval",
      "type": "event"
    },
    {
      "anonymous": false,
      "inputs": [
        {
          "indexed": true,
          "internalType": "address",
          "name": "owner",
          "type": "address"
        },
        {
          "indexed": true,
          "internalType": "address",
          "name": "operator",
          "type": "address"
        },
        {
          "indexed": false,
          "internalType": "bool",
          "name": "approved",
          "type": "bool"
        }
      ],
      "name": "ApprovalForAll",
      "type": "event"
    },
    {
      "anonymous": false,
      "inputs": [
        {
          "indexed": true,
          "internalType": "address",
          "name": "from",
          "type": "address"
        },
        {
          "indexed": true,
          "internalType": "address",
          "name": "to",
          "type": "address"
        },
        {
          "indexed": true,
          "internalType": "uint256",
          "name": "tokenId",
          "type": "uint256"
        }
      ],
      "name": "Transfer",
      "type": "event"
    },
    {
      "inputs": [
        {
          "internalType": "address",
          "name": "to",
          "type": "address"
        },
        {
          "internalType": "uint256",
          "name": "tokenId",
          "type": "uint256"
        }
      ],
      "name": "approve",
      "outputs": [],
      "stateMutability": "nonpayable",
      "type": "function"
    },
    {
      "inputs": [
        {
          "internalType": "uint256",
          "name": "",
          "type": "uint256"
        }
      ],
      "name": "arts",
      "outputs": [
        {
          "internalType": "uint256",
          "name": "tokenId",
          "type": "uint256"
        },
        {
          "internalType": "uint256",
          "name": "price",
          "type": "uint256"
        },
        {
          "internalType": "address",
          "name": "seller",
          "type": "address"
        },
        {
          "internalType": "bool",
          "name": "forSale",
          "type": "bool"
        }
      ],
      "stateMutability": "view",
      "type": "function"
    },
    {
      "inputs": [
        {
          "internalType": "address",
          "name": "owner",
          "type": "address"
        }
      ],
      "name": "balanceOf",
      "outputs": [
        {
          "internalType": "uint256",
          "name": "",
          "type": "uint256"
        }
      ],
      "stateMutability": "view",
      "type": "function"
    },
    {
      "inputs": [
        {
          "internalType": "uint256",
          "name": "_Id",
          "type": "uint256"
        }
      ],
      "name": "buyArt",
      "outputs": [],
      "stateMutability": "payable",
      "type": "function"
    },
    {
      "inputs": [
        {
          "internalType": "uint256",
          "name": "_Id",
          "type": "uint256"
        }
      ],
      "name": "cancelArtSale",
      "outputs": [],
      "stateMutability": "nonpayable",
      "type": "function"
    },
    {
      "inputs": [],
      "name": "getAllArts",
      "outputs": [
        {
          "internalType": "uint256",
          "name": "",
          "type": "uint256"
        }
      ],
      "stateMutability": "view",
      "type": "function"
    },
    {
      "inputs": [
        {
          "internalType": "uint256",
          "name": "tokenId",
          "type": "uint256"
        }
      ],
      "name": "getApproved",
      "outputs": [
        {
          "internalType": "address",
          "name": "",
          "type": "address"
        }
      ],
      "stateMutability": "view",
      "type": "function"
    },
    {
      "inputs": [
        {
          "internalType": "uint256",
          "name": "_Id",
          "type": "uint256"
        }
      ],
      "name": "getArt",
      "outputs": [
        {
          "components": [
            {
              "internalType": "uint256",
              "name": "tokenId",
              "type": "uint256"
            },
            {
              "internalType": "uint256",
              "name": "price",
              "type": "uint256"
            },
            {
              "internalType": "address",
              "name": "seller",
              "type": "address"
            },
            {
              "internalType": "bool",
              "name": "forSale",
              "type": "bool"
            }
          ],
          "internalType": "struct MyNFT.Art",
          "name": "",
          "type": "tuple"
        }
      ],
      "stateMutability": "view",
      "type": "function"
    },
    {
      "inputs": [
        {
          "internalType": "address",
          "name": "owner",
          "type": "address"
        },
        {
          "internalType": "address",
          "name": "operator",
          "type": "address"
        }
      ],
      "name": "isApprovedForAll",
      "outputs": [
        {
          "internalType": "bool",
          "name": "",
          "type": "bool"
        }
      ],
      "stateMutability": "view",
      "type": "function"
    },
    {
      "inputs": [
        {
          "internalType": "string",
          "name": "tokenURI",
          "type": "string"
        }
      ],
      "name": "mintArt",
      "outputs": [],
      "stateMutability": "payable",
      "type": "function"
    },
    {
      "inputs": [],
      "name": "name",
      "outputs": [
        {
          "internalType": "string",
          "name": "",
          "type": "string"
        }
      ],
      "stateMutability": "view",
      "type": "function"
    },
    {
      "inputs": [],
      "name": "owner",
      "outputs": [
        {
          "internalType": "address",
          "name": "",
          "type": "address"
        }
      ],
      "stateMutability": "view",
      "type": "function"
    },
    {
      "inputs": [
        {
          "internalType": "uint256",
          "name": "tokenId",
          "type": "uint256"
        }
      ],
      "name": "ownerOf",
      "outputs": [
        {
          "internalType": "address",
          "name": "",
          "type": "address"
        }
      ],
      "stateMutability": "view",
      "type": "function"
    },
    {
      "inputs": [
        {
          "internalType": "address",
          "name": "from",
          "type": "address"
        },
        {
          "internalType": "address",
          "name": "to",
          "type": "address"
        },
        {
          "internalType": "uint256",
          "name": "tokenId",
          "type": "uint256"
        }
      ],
      "name": "safeTransferFrom",
      "outputs": [],
      "stateMutability": "nonpayable",
      "type": "function"
    },
    {
      "inputs": [
        {
          "internalType": "address",
          "name": "from",
          "type": "address"
        },
        {
          "internalType": "address",
          "name": "to",
          "type": "address"
        },
        {
          "internalType": "uint256",
          "name": "tokenId",
          "type": "uint256"
        },
        {
          "internalType": "bytes",
          "name": "data",
          "type": "bytes"
        }
      ],
      "name": "safeTransferFrom",
      "outputs": [],
      "stateMutability": "nonpayable",
      "type": "function"
    },
    {
      "inputs": [
        {
          "internalType": "uint256",
          "name": "_Id",
          "type": "uint256"
        },
        {
          "internalType": "uint256",
          "name": "_price",
          "type": "uint256"
        }
      ],
      "name": "sellArt",
      "outputs": [],
      "stateMutability": "nonpayable",
      "type": "function"
    },
    {
      "inputs": [
        {
          "internalType": "address",
          "name": "operator",
          "type": "address"
        },
        {
          "internalType": "bool",
          "name": "approved",
          "type": "bool"
        }
      ],
      "name": "setApprovalForAll",
      "outputs": [],
      "stateMutability": "nonpayable",
      "type": "function"
    },
    {
      "inputs": [
        {
          "internalType": "bytes4",
          "name": "interfaceId",
          "type": "bytes4"
        }
      ],
      "name": "supportsInterface",
      "outputs": [
        {
          "internalType": "bool",
          "name": "",
          "type": "bool"
        }
      ],
      "stateMutability": "view",
      "type": "function"
    },
    {
      "inputs": [],
      "name": "symbol",
      "outputs": [
        {
          "internalType": "string",
          "name": "",
          "type": "string"
        }
      ],
      "stateMutability": "view",
      "type": "function"
    },
    {
      "inputs": [
        {
          "internalType": "uint256",
          "name": "tokenId",
          "type": "uint256"
        }
      ],
      "name": "tokenURI",
      "outputs": [
        {
          "internalType": "string",
          "name": "",
          "type": "string"
        }
      ],
      "stateMutability": "view",
      "type": "function"
    },
    {
      "inputs": [],
      "name": "totalSupply",
      "outputs": [
        {
          "internalType": "uint256",
          "name": "",
          "type": "uint256"
        }
      ],
      "stateMutability": "view",
      "type": "function"
    },
    {
      "inputs": [
        {
          "internalType": "address",
          "name": "from",
          "type": "address"
        },
        {
          "internalType": "address",
          "name": "to",
          "type": "address"
        },
        {
          "internalType": "uint256",
          "name": "tokenId",
          "type": "uint256"
        }
      ],
      "name": "transferFrom",
      "outputs": [],
      "stateMutability": "nonpayable",
      "type": "function"
    }
  ],
  "bytecode": "0x60806040523480156200001157600080fd5b5060405162003bc038038062003bc0833981810160405281019062000037919062000303565b8181816000908051906020019062000051929190620000b6565b5080600190805190602001906200006a929190620000b6565b50505033600960006101000a81548173ffffffffffffffffffffffffffffffffffffffff021916908373ffffffffffffffffffffffffffffffffffffffff1602179055505050620003ed565b828054620000c490620003b7565b90600052602060002090601f016020900481019282620000e8576000855562000134565b82601f106200010357805160ff191683800117855562000134565b8280016001018555821562000134579182015b828111156200013357825182559160200191906001019062000116565b5b50905062000143919062000147565b5090565b5b808211156200016257600081600090555060010162000148565b5090565b6000604051905090565b600080fd5b600080fd5b600080fd5b600080fd5b6000601f19601f8301169050919050565b7f4e487b7100000000000000000000000000000000000000000000000000000000600052604160045260246000fd5b620001cf8262000184565b810181811067ffffffffffffffff82111715620001f157620001f062000195565b5b80604052505050565b60006200020662000166565b9050620002148282620001c4565b919050565b600067ffffffffffffffff82111562000237576200023662000195565b5b620002428262000184565b9050602081019050919050565b60005b838110156200026f57808201518184015260208101905062000252565b838111156200027f576000848401525b50505050565b60006200029c620002968462000219565b620001fa565b905082815260208101848484011115620002bb57620002ba6200017f565b5b620002c88482856200024f565b509392505050565b600082601f830112620002e857620002e76200017a565b5b8151620002fa84826020860162000285565b91505092915050565b600080604083850312156200031d576200031c62000170565b5b600083015167ffffffffffffffff8111156200033e576200033d62000175565b5b6200034c85828601620002d0565b925050602083015167ffffffffffffffff81111562000370576200036f62000175565b5b6200037e85828601620002d0565b9150509250929050565b7f4e487b7100000000000000000000000000000000000000000000000000000000600052602260045260246000fd5b60006002820490506001821680620003d057607f821691505b60208210811415620003e757620003e662000388565b5b50919050565b6137c380620003fd6000396000f3fe6080604052600436106101355760003560e01c806370a08231116100ab578063a22cb4651161006f578063a22cb4651461042b578063b88d4fde14610454578063c87b56dd1461047d578063e57a104a146104ba578063e985e9c5146104fa578063fc7a900b1461053757610135565b806370a082311461033f578063818d58361461037c5780638c4796c7146103985780638da5cb5b146103d557806395d89b411461040057610135565b806323b872dd116100fd57806323b872dd146102335780632890a5111461025c5780632bb16c691461028557806338f95cb6146102b057806342842e0e146102d95780636352211e1461030257610135565b806301ffc9a71461013a57806306fdde0314610177578063081812fc146101a2578063095ea7b3146101df57806318160ddd14610208575b600080fd5b34801561014657600080fd5b50610161600480360381019061015c919061251c565b610553565b60405161016e9190612564565b60405180910390f35b34801561018357600080fd5b5061018c610635565b6040516101999190612618565b60405180910390f35b3480156101ae57600080fd5b506101c960048036038101906101c49190612670565b6106c7565b6040516101d691906126de565b60405180910390f35b3480156101eb57600080fd5b5061020660048036038101906102019190612725565b61070d565b005b34801561021457600080fd5b5061021d610825565b60405161022a9190612774565b60405180910390f35b34801561023f57600080fd5b5061025a6004803603810190610255919061278f565b610836565b005b34801561026857600080fd5b50610283600480360381019061027e91906127e2565b610896565b005b34801561029157600080fd5b5061029a610a15565b6040516102a79190612774565b60405180910390f35b3480156102bc57600080fd5b506102d760048036038101906102d29190612670565b610a26565b005b3480156102e557600080fd5b5061030060048036038101906102fb919061278f565b610b57565b005b34801561030e57600080fd5b5061032960048036038101906103249190612670565b610b77565b60405161033691906126de565b60405180910390f35b34801561034b57600080fd5b5061036660048036038101906103619190612822565b610bfe565b6040516103739190612774565b60405180910390f35b61039660048036038101906103919190612984565b610cb6565b005b3480156103a457600080fd5b506103bf60048036038101906103ba9190612670565b610cef565b6040516103cc9190612a4f565b60405180910390f35b3480156103e157600080fd5b506103ea610da1565b6040516103f791906126de565b60405180910390f35b34801561040c57600080fd5b50610415610dc7565b6040516104229190612618565b60405180910390f35b34801561043757600080fd5b50610452600480360381019061044d9190612a96565b610e59565b005b34801561046057600080fd5b5061047b60048036038101906104769190612b77565b610e6f565b005b34801561048957600080fd5b506104a4600480360381019061049f9190612670565b610ed1565b6040516104b19190612618565b60405180910390f35b3480156104c657600080fd5b506104e160048036038101906104dc9190612670565b610fe4565b6040516104f19493929190612bfa565b60405180910390f35b34801561050657600080fd5b50610521600480360381019061051c9190612c3f565b611041565b60405161052e9190612564565b60405180910390f35b610551600480360381019061054c9190612670565b6110d5565b005b60007f80ac58cd000000000000000000000000000000000000000000000000000000007bffffffffffffffffffffffffffffffffffffffffffffffffffffffff1916827bffffffffffffffffffffffffffffffffffffffffffffffffffffffff1916148061061e57507f5b5e139f000000000000000000000000000000000000000000000000000000007bffffffffffffffffffffffffffffffffffffffffffffffffffffffff1916827bffffffffffffffffffffffffffffffffffffffffffffffffffffffff1916145b8061062e575061062d82611359565b5b9050919050565b60606000805461064490612cae565b80601f016020809104026020016040519081016040528092919081815260200182805461067090612cae565b80156106bd5780601f10610692576101008083540402835291602001916106bd565b820191906000526020600020905b8154815290600101906020018083116106a057829003601f168201915b5050505050905090565b60006106d2826113c3565b6004600083815260200190815260200160002060009054906101000a900473ffffffffffffffffffffffffffffffffffffffff169050919050565b600061071882610b77565b90508073ffffffffffffffffffffffffffffffffffffffff168373ffffffffffffffffffffffffffffffffffffffff161415610789576040517f08c379a000000000000000000000000000000000000000000000000000000000815260040161078090612d52565b60405180910390fd5b8073ffffffffffffffffffffffffffffffffffffffff166107a861140e565b73ffffffffffffffffffffffffffffffffffffffff1614806107d757506107d6816107d161140e565b611041565b5b610816576040517f08c379a000000000000000000000000000000000000000000000000000000000815260040161080d90612de4565b60405180910390fd5b6108208383611416565b505050565b600061083160076114cf565b905090565b61084761084161140e565b826114dd565b610886576040517f08c379a000000000000000000000000000000000000000000000000000000000815260040161087d90612e76565b60405180910390fd5b610891838383611572565b505050565b81600a600082815260200190815260200160002060020160009054906101000a900473ffffffffffffffffffffffffffffffffffffffff1673ffffffffffffffffffffffffffffffffffffffff163373ffffffffffffffffffffffffffffffffffffffff161461090557600080fd5b6000600a60008581526020019081526020016000209050600083141561092a57600080fd5b3373ffffffffffffffffffffffffffffffffffffffff168160020160009054906101000a900473ffffffffffffffffffffffffffffffffffffffff1673ffffffffffffffffffffffffffffffffffffffff16146109bc576040517f08c379a00000000000000000000000000000000000000000000000000000000081526004016109b390612ee2565b60405180910390fd5b600015158160020160149054906101000a900460ff161515146109de57600080fd5b6109e9333086611572565b82816001018190555060018160020160146101000a81548160ff02191690831515021790555050505050565b6000610a2160086114cf565b905090565b80600a600082815260200190815260200160002060020160009054906101000a900473ffffffffffffffffffffffffffffffffffffffff1673ffffffffffffffffffffffffffffffffffffffff163373ffffffffffffffffffffffffffffffffffffffff1614610a9557600080fd5b6000600a600084815260200190815260200160002090503373ffffffffffffffffffffffffffffffffffffffff168160020160009054906101000a900473ffffffffffffffffffffffffffffffffffffffff1673ffffffffffffffffffffffffffffffffffffffff1614610b0857600080fd5b600115158160020160149054906101000a900460ff16151514610b2a57600080fd5b610b35303385611572565b60008160020160146101000a81548160ff021916908315150217905550505050565b610b7283838360405180602001604052806000815250610e6f565b505050565b600080610b838361186c565b9050600073ffffffffffffffffffffffffffffffffffffffff168173ffffffffffffffffffffffffffffffffffffffff161415610bf5576040517f08c379a0000000000000000000000000000000000000000000000000000000008152600401610bec90612f4e565b60405180910390fd5b80915050919050565b60008073ffffffffffffffffffffffffffffffffffffffff168273ffffffffffffffffffffffffffffffffffffffff161415610c6f576040517f08c379a0000000000000000000000000000000000000000000000000000000008152600401610c6690612fe0565b60405180910390fd5b600360008373ffffffffffffffffffffffffffffffffffffffff1673ffffffffffffffffffffffffffffffffffffffff168152602001908152602001600020549050919050565b610cc060076118a9565b6000610ccc60076114cf565b9050610cd833826118bf565b610ce28183611add565b610ceb81611b51565b5050565b610cf76123cd565b600a600083815260200190815260200160002060405180608001604052908160008201548152602001600182015481526020016002820160009054906101000a900473ffffffffffffffffffffffffffffffffffffffff1673ffffffffffffffffffffffffffffffffffffffff1673ffffffffffffffffffffffffffffffffffffffff1681526020016002820160149054906101000a900460ff1615151515815250509050919050565b600960009054906101000a900473ffffffffffffffffffffffffffffffffffffffff1681565b606060018054610dd690612cae565b80601f0160208091040260200160405190810160405280929190818152602001828054610e0290612cae565b8015610e4f5780601f10610e2457610100808354040283529160200191610e4f565b820191906000526020600020905b815481529060010190602001808311610e3257829003601f168201915b5050505050905090565b610e6b610e6461140e565b8383611c33565b5050565b610e80610e7a61140e565b836114dd565b610ebf576040517f08c379a0000000000000000000000000000000000000000000000000000000008152600401610eb690612e76565b60405180910390fd5b610ecb84848484611da0565b50505050565b6060610edc826113c3565b6000600660008481526020019081526020016000208054610efc90612cae565b80601f0160208091040260200160405190810160405280929190818152602001828054610f2890612cae565b8015610f755780601f10610f4a57610100808354040283529160200191610f75565b820191906000526020600020905b815481529060010190602001808311610f5857829003601f168201915b505050505090506000610f86611dfc565b9050600081511415610f9c578192505050610fdf565b600082511115610fd1578082604051602001610fb992919061303c565b60405160208183030381529060405292505050610fdf565b610fda84611e13565b925050505b919050565b600a6020528060005260406000206000915090508060000154908060010154908060020160009054906101000a900473ffffffffffffffffffffffffffffffffffffffff16908060020160149054906101000a900460ff16905084565b6000600560008473ffffffffffffffffffffffffffffffffffffffff1673ffffffffffffffffffffffffffffffffffffffff16815260200190815260200160002060008373ffffffffffffffffffffffffffffffffffffffff1673ffffffffffffffffffffffffffffffffffffffff16815260200190815260200160002060009054906101000a900460ff16905092915050565b6000600a60008381526020019081526020016000209050600082118015611105575061110160086114cf565b8211155b611144576040517f08c379a000000000000000000000000000000000000000000000000000000000815260040161113b906130ac565b60405180910390fd5b806001015434101561118b576040517f08c379a00000000000000000000000000000000000000000000000000000000081526004016111829061313e565b60405180910390fd5b600015158160020160149054906101000a900460ff16151514156111e4576040517f08c379a00000000000000000000000000000000000000000000000000000000081526004016111db906131aa565b60405180910390fd5b3373ffffffffffffffffffffffffffffffffffffffff168160020160009054906101000a900473ffffffffffffffffffffffffffffffffffffffff1673ffffffffffffffffffffffffffffffffffffffff161415611277576040517f08c379a000000000000000000000000000000000000000000000000000000000815260040161126e90613216565b60405180910390fd5b8060020160009054906101000a900473ffffffffffffffffffffffffffffffffffffffff1673ffffffffffffffffffffffffffffffffffffffff166108fc82600101549081150290604051600060405180830381858888f193505050501580156112e5573d6000803e3d6000fd5b506112f530338360000154611572565b338160020160006101000a81548173ffffffffffffffffffffffffffffffffffffffff021916908373ffffffffffffffffffffffffffffffffffffffff16021790555060008160020160146101000a81548160ff0219169083151502179055505050565b60007f01ffc9a7000000000000000000000000000000000000000000000000000000007bffffffffffffffffffffffffffffffffffffffffffffffffffffffff1916827bffffffffffffffffffffffffffffffffffffffffffffffffffffffff1916149050919050565b6113cc81611e7b565b61140b576040517f08c379a000000000000000000000000000000000000000000000000000000000815260040161140290612f4e565b60405180910390fd5b50565b600033905090565b816004600083815260200190815260200160002060006101000a81548173ffffffffffffffffffffffffffffffffffffffff021916908373ffffffffffffffffffffffffffffffffffffffff160217905550808273ffffffffffffffffffffffffffffffffffffffff1661148983610b77565b73ffffffffffffffffffffffffffffffffffffffff167f8c5be1e5ebec7d5bd14f71427d1e84f3dd0314c0f7b2291e5b200ac8c7c3b92560405160405180910390a45050565b600081600001549050919050565b6000806114e983610b77565b90508073ffffffffffffffffffffffffffffffffffffffff168473ffffffffffffffffffffffffffffffffffffffff16148061152b575061152a8185611041565b5b8061156957508373ffffffffffffffffffffffffffffffffffffffff16611551846106c7565b73ffffffffffffffffffffffffffffffffffffffff16145b91505092915050565b8273ffffffffffffffffffffffffffffffffffffffff1661159282610b77565b73ffffffffffffffffffffffffffffffffffffffff16146115e8576040517f08c379a00000000000000000000000000000000000000000000000000000000081526004016115df906132a8565b60405180910390fd5b600073ffffffffffffffffffffffffffffffffffffffff168273ffffffffffffffffffffffffffffffffffffffff161415611658576040517f08c379a000000000000000000000000000000000000000000000000000000000815260040161164f9061333a565b60405180910390fd5b6116658383836001611ebc565b8273ffffffffffffffffffffffffffffffffffffffff1661168582610b77565b73ffffffffffffffffffffffffffffffffffffffff16146116db576040517f08c379a00000000000000000000000000000000000000000000000000000000081526004016116d2906132a8565b60405180910390fd5b6004600082815260200190815260200160002060006101000a81549073ffffffffffffffffffffffffffffffffffffffff02191690556001600360008573ffffffffffffffffffffffffffffffffffffffff1673ffffffffffffffffffffffffffffffffffffffff168152602001908152602001600020600082825403925050819055506001600360008473ffffffffffffffffffffffffffffffffffffffff1673ffffffffffffffffffffffffffffffffffffffff16815260200190815260200160002060008282540192505081905550816002600083815260200190815260200160002060006101000a81548173ffffffffffffffffffffffffffffffffffffffff021916908373ffffffffffffffffffffffffffffffffffffffff160217905550808273ffffffffffffffffffffffffffffffffffffffff168473ffffffffffffffffffffffffffffffffffffffff167fddf252ad1be2c89b69c2b068fc378daa952ba7f163c4a11628f55a4df523b3ef60405160405180910390a46118678383836001611fe2565b505050565b60006002600083815260200190815260200160002060009054906101000a900473ffffffffffffffffffffffffffffffffffffffff169050919050565b6001816000016000828254019250508190555050565b600073ffffffffffffffffffffffffffffffffffffffff168273ffffffffffffffffffffffffffffffffffffffff16141561192f576040517f08c379a0000000000000000000000000000000000000000000000000000000008152600401611926906133a6565b60405180910390fd5b61193881611e7b565b15611978576040517f08c379a000000000000000000000000000000000000000000000000000000000815260040161196f90613412565b60405180910390fd5b611986600083836001611ebc565b61198f81611e7b565b156119cf576040517f08c379a00000000000000000000000000000000000000000000000000000000081526004016119c690613412565b60405180910390fd5b6001600360008473ffffffffffffffffffffffffffffffffffffffff1673ffffffffffffffffffffffffffffffffffffffff16815260200190815260200160002060008282540192505081905550816002600083815260200190815260200160002060006101000a81548173ffffffffffffffffffffffffffffffffffffffff021916908373ffffffffffffffffffffffffffffffffffffffff160217905550808273ffffffffffffffffffffffffffffffffffffffff16600073ffffffffffffffffffffffffffffffffffffffff167fddf252ad1be2c89b69c2b068fc378daa952ba7f163c4a11628f55a4df523b3ef60405160405180910390a4611ad9600083836001611fe2565b5050565b611ae682611e7b565b611b25576040517f08c379a0000000000000000000000000000000000000000000000000000000008152600401611b1c906134a4565b60405180910390fd5b80600660008481526020019081526020016000209080519060200190611b4c92919061240d565b505050565b611b5b60086118a9565b6040518060800160405280828152602001600081526020013373ffffffffffffffffffffffffffffffffffffffff16815260200160001515815250600a6000611ba460086114cf565b8152602001908152602001600020600082015181600001556020820151816001015560408201518160020160006101000a81548173ffffffffffffffffffffffffffffffffffffffff021916908373ffffffffffffffffffffffffffffffffffffffff16021790555060608201518160020160146101000a81548160ff02191690831515021790555090505050565b8173ffffffffffffffffffffffffffffffffffffffff168373ffffffffffffffffffffffffffffffffffffffff161415611ca2576040517f08c379a0000000000000000000000000000000000000000000000000000000008152600401611c9990613510565b60405180910390fd5b80600560008573ffffffffffffffffffffffffffffffffffffffff1673ffffffffffffffffffffffffffffffffffffffff16815260200190815260200160002060008473ffffffffffffffffffffffffffffffffffffffff1673ffffffffffffffffffffffffffffffffffffffff16815260200190815260200160002060006101000a81548160ff0219169083151502179055508173ffffffffffffffffffffffffffffffffffffffff168373ffffffffffffffffffffffffffffffffffffffff167f17307eab39ab6107e8899845ad3d59bd9653f200f220920489ca2b5937696c3183604051611d939190612564565b60405180910390a3505050565b611dab848484611572565b611db784848484611fe8565b611df6576040517f08c379a0000000000000000000000000000000000000000000000000000000008152600401611ded906135a2565b60405180910390fd5b50505050565b606060405180602001604052806000815250905090565b6060611e1e826113c3565b6000611e28611dfc565b90506000815111611e485760405180602001604052806000815250611e73565b80611e528461217f565b604051602001611e6392919061303c565b6040516020818303038152906040525b915050919050565b60008073ffffffffffffffffffffffffffffffffffffffff16611e9d8361186c565b73ffffffffffffffffffffffffffffffffffffffff1614159050919050565b6001811115611fdc57600073ffffffffffffffffffffffffffffffffffffffff168473ffffffffffffffffffffffffffffffffffffffff1614611f505780600360008673ffffffffffffffffffffffffffffffffffffffff1673ffffffffffffffffffffffffffffffffffffffff1681526020019081526020016000206000828254611f4891906135f1565b925050819055505b600073ffffffffffffffffffffffffffffffffffffffff168373ffffffffffffffffffffffffffffffffffffffff1614611fdb5780600360008573ffffffffffffffffffffffffffffffffffffffff1673ffffffffffffffffffffffffffffffffffffffff1681526020019081526020016000206000828254611fd39190613625565b925050819055505b5b50505050565b50505050565b60006120098473ffffffffffffffffffffffffffffffffffffffff16612257565b15612172578373ffffffffffffffffffffffffffffffffffffffff1663150b7a0261203261140e565b8786866040518563ffffffff1660e01b815260040161205494939291906136d0565b602060405180830381600087803b15801561206e57600080fd5b505af192505050801561209f57506040513d601f19601f8201168201806040525081019061209c9190613731565b60015b612122573d80600081146120cf576040519150601f19603f3d011682016040523d82523d6000602084013e6120d4565b606091505b5060008151141561211a576040517f08c379a0000000000000000000000000000000000000000000000000000000008152600401612111906135a2565b60405180910390fd5b805181602001fd5b63150b7a0260e01b7bffffffffffffffffffffffffffffffffffffffffffffffffffffffff1916817bffffffffffffffffffffffffffffffffffffffffffffffffffffffff191614915050612177565b600190505b949350505050565b60606000600161218e8461227a565b01905060008167ffffffffffffffff8111156121ad576121ac612859565b5b6040519080825280601f01601f1916602001820160405280156121df5781602001600182028036833780820191505090505b509050600082602001820190505b60011561224c578080600190039150507f3031323334353637383961626364656600000000000000000000000000000000600a86061a8153600a85816122365761223561375e565b5b04945060008514156122475761224c565b6121ed565b819350505050919050565b6000808273ffffffffffffffffffffffffffffffffffffffff163b119050919050565b600080600090507a184f03e93ff9f4daa797ed6e38ed64bf6a1f01000000000000000083106122d8577a184f03e93ff9f4daa797ed6e38ed64bf6a1f01000000000000000083816122ce576122cd61375e565b5b0492506040810190505b6d04ee2d6d415b85acef81000000008310612315576d04ee2d6d415b85acef8100000000838161230b5761230a61375e565b5b0492506020810190505b662386f26fc10000831061234457662386f26fc10000838161233a5761233961375e565b5b0492506010810190505b6305f5e100831061236d576305f5e10083816123635761236261375e565b5b0492506008810190505b61271083106123925761271083816123885761238761375e565b5b0492506004810190505b606483106123b557606483816123ab576123aa61375e565b5b0492506002810190505b600a83106123c4576001810190505b80915050919050565b60405180608001604052806000815260200160008152602001600073ffffffffffffffffffffffffffffffffffffffff1681526020016000151581525090565b82805461241990612cae565b90600052602060002090601f01602090048101928261243b5760008555612482565b82601f1061245457805160ff1916838001178555612482565b82800160010185558215612482579182015b82811115612481578251825591602001919060010190612466565b5b50905061248f9190612493565b5090565b5b808211156124ac576000816000905550600101612494565b5090565b6000604051905090565b600080fd5b600080fd5b60007fffffffff0000000000000000000000000000000000000000000000000000000082169050919050565b6124f9816124c4565b811461250457600080fd5b50565b600081359050612516816124f0565b92915050565b600060208284031215612532576125316124ba565b5b600061254084828501612507565b91505092915050565b60008115159050919050565b61255e81612549565b82525050565b60006020820190506125796000830184612555565b92915050565b600081519050919050565b600082825260208201905092915050565b60005b838110156125b957808201518184015260208101905061259e565b838111156125c8576000848401525b50505050565b6000601f19601f8301169050919050565b60006125ea8261257f565b6125f4818561258a565b935061260481856020860161259b565b61260d816125ce565b840191505092915050565b6000602082019050818103600083015261263281846125df565b905092915050565b6000819050919050565b61264d8161263a565b811461265857600080fd5b50565b60008135905061266a81612644565b92915050565b600060208284031215612686576126856124ba565b5b60006126948482850161265b565b91505092915050565b600073ffffffffffffffffffffffffffffffffffffffff82169050919050565b60006126c88261269d565b9050919050565b6126d8816126bd565b82525050565b60006020820190506126f360008301846126cf565b92915050565b612702816126bd565b811461270d57600080fd5b50565b60008135905061271f816126f9565b92915050565b6000806040838503121561273c5761273b6124ba565b5b600061274a85828601612710565b925050602061275b8582860161265b565b9150509250929050565b61276e8161263a565b82525050565b60006020820190506127896000830184612765565b92915050565b6000806000606084860312156127a8576127a76124ba565b5b60006127b686828701612710565b93505060206127c786828701612710565b92505060406127d88682870161265b565b9150509250925092565b600080604083850312156127f9576127f86124ba565b5b60006128078582860161265b565b92505060206128188582860161265b565b9150509250929050565b600060208284031215612838576128376124ba565b5b600061284684828501612710565b91505092915050565b600080fd5b600080fd5b7f4e487b7100000000000000000000000000000000000000000000000000000000600052604160045260246000fd5b612891826125ce565b810181811067ffffffffffffffff821117156128b0576128af612859565b5b80604052505050565b60006128c36124b0565b90506128cf8282612888565b919050565b600067ffffffffffffffff8211156128ef576128ee612859565b5b6128f8826125ce565b9050602081019050919050565b82818337600083830152505050565b6000612927612922846128d4565b6128b9565b90508281526020810184848401111561294357612942612854565b5b61294e848285612905565b509392505050565b600082601f83011261296b5761296a61284f565b5b813561297b848260208601612914565b91505092915050565b60006020828403121561299a576129996124ba565b5b600082013567ffffffffffffffff8111156129b8576129b76124bf565b5b6129c484828501612956565b91505092915050565b6129d68161263a565b82525050565b6129e5816126bd565b82525050565b6129f481612549565b82525050565b608082016000820151612a1060008501826129cd565b506020820151612a2360208501826129cd565b506040820151612a3660408501826129dc565b506060820151612a4960608501826129eb565b50505050565b6000608082019050612a6460008301846129fa565b92915050565b612a7381612549565b8114612a7e57600080fd5b50565b600081359050612a9081612a6a565b92915050565b60008060408385031215612aad57612aac6124ba565b5b6000612abb85828601612710565b9250506020612acc85828601612a81565b9150509250929050565b600067ffffffffffffffff821115612af157612af0612859565b5b612afa826125ce565b9050602081019050919050565b6000612b1a612b1584612ad6565b6128b9565b905082815260208101848484011115612b3657612b35612854565b5b612b41848285612905565b509392505050565b600082601f830112612b5e57612b5d61284f565b5b8135612b6e848260208601612b07565b91505092915050565b60008060008060808587031215612b9157612b906124ba565b5b6000612b9f87828801612710565b9450506020612bb087828801612710565b9350506040612bc18782880161265b565b925050606085013567ffffffffffffffff811115612be257612be16124bf565b5b612bee87828801612b49565b91505092959194509250565b6000608082019050612c0f6000830187612765565b612c1c6020830186612765565b612c2960408301856126cf565b612c366060830184612555565b95945050505050565b60008060408385031215612c5657612c556124ba565b5b6000612c6485828601612710565b9250506020612c7585828601612710565b9150509250929050565b7f4e487b7100000000000000000000000000000000000000000000000000000000600052602260045260246000fd5b60006002820490506001821680612cc657607f821691505b60208210811415612cda57612cd9612c7f565b5b50919050565b7f4552433732313a20617070726f76616c20746f2063757272656e74206f776e6560008201527f7200000000000000000000000000000000000000000000000000000000000000602082015250565b6000612d3c60218361258a565b9150612d4782612ce0565b604082019050919050565b60006020820190508181036000830152612d6b81612d2f565b9050919050565b7f4552433732313a20617070726f76652063616c6c6572206973206e6f7420746f60008201527f6b656e206f776e6572206f7220617070726f76656420666f7220616c6c000000602082015250565b6000612dce603d8361258a565b9150612dd982612d72565b604082019050919050565b60006020820190508181036000830152612dfd81612dc1565b9050919050565b7f4552433732313a2063616c6c6572206973206e6f7420746f6b656e206f776e6560008201527f72206f7220617070726f76656400000000000000000000000000000000000000602082015250565b6000612e60602d8361258a565b9150612e6b82612e04565b604082019050919050565b60006020820190508181036000830152612e8f81612e53565b9050919050565b7f4f6e6c7920746865206e6674206f776e65722063616e2073656c6c206e667400600082015250565b6000612ecc601f8361258a565b9150612ed782612e96565b602082019050919050565b60006020820190508181036000830152612efb81612ebf565b9050919050565b7f4552433732313a20696e76616c696420746f6b656e2049440000000000000000600082015250565b6000612f3860188361258a565b9150612f4382612f02565b602082019050919050565b60006020820190508181036000830152612f6781612f2b565b9050919050565b7f4552433732313a2061646472657373207a65726f206973206e6f74206120766160008201527f6c6964206f776e65720000000000000000000000000000000000000000000000602082015250565b6000612fca60298361258a565b9150612fd582612f6e565b604082019050919050565b60006020820190508181036000830152612ff981612fbd565b9050919050565b600081905092915050565b60006130168261257f565b6130208185613000565b935061303081856020860161259b565b80840191505092915050565b6000613048828561300b565b9150613054828461300b565b91508190509392505050565b7f6974656d20646f65736e27742065786973740000000000000000000000000000600082015250565b600061309660128361258a565b91506130a182613060565b602082019050919050565b600060208201905081810360008301526130c581613089565b9050919050565b7f6e6f7420656e6f7567682062616c616e636520666f722074686973207472616e60008201527f73616374696f6e00000000000000000000000000000000000000000000000000602082015250565b600061312860278361258a565b9150613133826130cc565b604082019050919050565b600060208201905081810360008301526131578161311b565b9050919050565b7f6974656d206973206e6f7420666f722073656c6c000000000000000000000000600082015250565b600061319460148361258a565b915061319f8261315e565b602082019050919050565b600060208201905081810360008301526131c381613187565b9050919050565b7f596f752063616e6e6f742062757920796f7572206f776e206e66742061727400600082015250565b6000613200601f8361258a565b915061320b826131ca565b602082019050919050565b6000602082019050818103600083015261322f816131f3565b9050919050565b7f4552433732313a207472616e736665722066726f6d20696e636f72726563742060008201527f6f776e6572000000000000000000000000000000000000000000000000000000602082015250565b600061329260258361258a565b915061329d82613236565b604082019050919050565b600060208201905081810360008301526132c181613285565b9050919050565b7f4552433732313a207472616e7366657220746f20746865207a65726f2061646460008201527f7265737300000000000000000000000000000000000000000000000000000000602082015250565b600061332460248361258a565b915061332f826132c8565b604082019050919050565b6000602082019050818103600083015261335381613317565b9050919050565b7f4552433732313a206d696e7420746f20746865207a65726f2061646472657373600082015250565b600061339060208361258a565b915061339b8261335a565b602082019050919050565b600060208201905081810360008301526133bf81613383565b9050919050565b7f4552433732313a20746f6b656e20616c7265616479206d696e74656400000000600082015250565b60006133fc601c8361258a565b9150613407826133c6565b602082019050919050565b6000602082019050818103600083015261342b816133ef565b9050919050565b7f45524337323155524953746f726167653a2055524920736574206f66206e6f6e60008201527f6578697374656e7420746f6b656e000000000000000000000000000000000000602082015250565b600061348e602e8361258a565b915061349982613432565b604082019050919050565b600060208201905081810360008301526134bd81613481565b9050919050565b7f4552433732313a20617070726f766520746f2063616c6c657200000000000000600082015250565b60006134fa60198361258a565b9150613505826134c4565b602082019050919050565b60006020820190508181036000830152613529816134ed565b9050919050565b7f4552433732313a207472616e7366657220746f206e6f6e20455243373231526560008201527f63656976657220696d706c656d656e7465720000000000000000000000000000602082015250565b600061358c60328361258a565b915061359782613530565b604082019050919050565b600060208201905081810360008301526135bb8161357f565b9050919050565b7f4e487b7100000000000000000000000000000000000000000000000000000000600052601160045260246000fd5b60006135fc8261263a565b91506136078361263a565b92508282101561361a576136196135c2565b5b828203905092915050565b60006136308261263a565b915061363b8361263a565b9250827fffffffffffffffffffffffffffffffffffffffffffffffffffffffffffffffff038211156136705761366f6135c2565b5b828201905092915050565b600081519050919050565b600082825260208201905092915050565b60006136a28261367b565b6136ac8185613686565b93506136bc81856020860161259b565b6136c5816125ce565b840191505092915050565b60006080820190506136e560008301876126cf565b6136f260208301866126cf565b6136ff6040830185612765565b81810360608301526137118184613697565b905095945050505050565b60008151905061372b816124f0565b92915050565b600060208284031215613747576137466124ba565b5b60006137558482850161371c565b91505092915050565b7f4e487b7100000000000000000000000000000000000000000000000000000000600052601260045260246000fdfea264697066735822122077461c6d6dcde8ff41fa02653a6459582cb50d6dbcef206c8d9ddd300724a1f364736f6c63430008090033",
  "linkReferences": {},
  "deployedLinkReferences": {}
}